:020000040800F2
:1000000098040020050100080D0100080F010008F8
:10001000110100081301000815010008000000008C
:1000200000000000000000000000000017010008B0
:1000300019010008000000001B0100083915000824
:100040001F0100081F0100081F0100081F01000810
:100050001F0100081F0100081F0100081F01000800
:100060001F0100081F0100081F0100081F010008F0
:100070001F0100081F0100081F0100081F010008E0
:100080001F0100081F0100081F0100081F010008D0
:100090001F0100081F0100081F0100081F010008C0
:1000A0001F0100081F0100081F0100081F010008B0
:1000B0001F0100081F0100081F0100081F010008A0
:1000C0001F0100081F0100081F0100081F01000890
:1000D0001F0100081F0100081F0100081F01000880
:1000E0001F0100081F0100081F010008DFF810D0E1
:1000F00000F018FC0048004771230008AFF30080AF
:10010000980400200648804706480047FEE7FEE7BF
:10011000FEE7FEE7FEE7FEE7FEE7FEE7FEE7FEE7B7
:100120003D150008ED000008D2B201E000F8012BF7
:10013000491EFBD270470022F6E710B513460A4667
:1001400004461946FFF7F0FF204610BDF0B480EAE0
:100150000102D40F4200B2EB410F02D20246084620
:1001600011464A0042D0C30DDDB2C1F3C752AD1AE9
:10017000202D35DAC1F3160141F4000204B15242D8
:10018000C5F1200602FA06F12A411044B3EBD05F14
:1001900023D0C4B1012DA0EBC35009DCF0BC4FF05B
:1001A000004202EAC352DBB200F5000000F05DBA83
:1001B000400000F1807000EBC350A0F1807040EA75
:1001C000D170490009E0490841EAC071A0EBC35071
:1001D00000F50000400800EBC350F0BC00F03CBA52
:1001E0006142012202EB4101001BF6E7F0BC7047BF
:1001F00081F00041AAE780F00040A7E780EA010211
:1002000010B502F00043400022D04A001FD0010E7A
:1002100001EB1261C0F35600C2F3560240F4000035
:1002200042F40002A0FB022000047F39140400D035
:10023000401C50EA124001D44000491EC2B20C06D4
:1002400004EBD010401C4008802A02D003E00020BC
:1002500010BD20F00100002900DA0020184310BD75
:1002600030B480EA010202F0004530F0004221F093
:10027000004013D090B1C30DD40DC2F31601C0F3EA
:100280001600E41A41F4000140F400027D3491426A
:1002900001D3641C00E04900002C02DA30BC0020CD
:1002A00070474FF400000023914201D3891A0343A1
:1002B00040084FEA4101F7D151B1914202D14FF0CC
:1002C000004105E002D24FF0010101E06FF00101B1
:1002D00003EBC450284430BC00F0BEB92DE9FE4FFA
:1002E000804681EA0300C00F0C46009021F00041D7
:1002F00023F00045B8EB0200A94105D24046214653
:1003000090461C460B46024623F00040104347D05F
:10031000270DC7F30A00C3F30A510290401A019057
:1003200040286BDAC3F3130040F4801B0098924618
:1003300020B10023D2EB030A63EB0B0B0198594663
:10034000C0F14002504600F066F906460D465046A0
:100350005946019A00F06EF910EB08006141002443
:1003600087EA115284EAE7731A4340D0009A62B3D5
:10037000019A012A4FEA075215DC001B61EB0201CA
:100380004FF0004202EA0752CDE90042001C41F55D
:10039000801132462B4600F0D4F903B0BDE8F08F4F
:1003A00040462146F9E7001B61EB0201001C41F5C4
:1003B000801300185B412018A2F5001747EB0301DA
:1003C00040EAD570B6196D4111E06D084FEA360666
:1003D00045EAC0754FEA0752001B61EB0201001CA1
:1003E00041F5801149084FEA300000195141324669
:1003F0002B4603B0BDE8F04F00F094B900980122FD
:1004000040000023D0EB020263EBE073009821462A
:100410004FEAE074B8EB000061EB0401E9E783F018
:1004200000435BE781F0004158E72DE9F04D81EA98
:10043000030404F0004B21F0004514464FF0000A7D
:1004400023F0004150EA050220D054EA01021DD0F9
:10045000C5F30A570246C5F31303C1F31300C1F3F2
:100460000A5640F4801543F48013A7EB0608101BCE
:10047000D64608F2FD3873EB050002D308F10108F7
:1004800001E092185B41B8F1000F03DA0020014649
:10049000BDE8F08D00204FF48011064684460EE042
:1004A000171B73EB050705D3121B63EB050306430C
:1004B0004CEA010C49084FEA300092185B4150EABF
:1004C0000107EDD152EA030012D082EA040083EA68
:1004D0000501084305D0101BAB4106D201220023C1
:1004E00006E000224FF0004302E06FF001025310DB
:1004F0001AEB06004CEB085110EB0A0041EB0B0124
:10050000BDE8F04D00F00EB9C10F80EAE07008447C
:10051000CA079623002100F0A8B800F0004220F09E
:100520000040C10DC0F3160040F400007F2901DA3D
:1005300000207047962903DCC1F19601C84001E014
:1005400096398840002AF4D04042704700F00042BB
:1005500030F000400AD0C10D01F56071C0F3160003
:1005600042EA0151C208400711437047002001468A
:1005700070470000002801DBC0F10040002901DBCA
:10058000C1F100418842704730B50B46014600205A
:100590002022012409E021FA02F59D4205D303FA45
:1005A00002F5491B04FA02F52844151EA2F10102C6
:1005B000F1DC30BD2DE9F05F0546002092469B46F8
:1005C00088460646814640241BE028464146474669
:1005D000224600F0B9F953465A46C01A914110D349
:1005E00011461846224600F016F82D1A67EB01084E
:1005F0004F4622460120002100F00DF817EB0009BC
:100600004E41201EA4F10104DFDC484631462A4653
:100610004346BDE8F09F202A04DB203A00FA02F1AD
:10062000002070479140C2F1200320FA03F31943E0
:1006300090407047202A06DBCB17203A41FA02F09F
:1006400043EAE07306E041FA02F3D040C2F120022F
:1006500091400843194670470029A8BF7047401CC5
:10066000490008BF20F00100704710B4B0FA80FCC8
:1006700000FA0CF050EA010404BF10BC704749B105
:10068000CCF1200421FA04F411FA0CF118BF012175
:1006900021430843A3EB0C01CB1D4FEA00614FEA55
:1006A000102042BF002010BC704700EBC350104424
:1006B0000029A4BF10BC7047401C490008BF20F0AF
:1006C000010010BC7047F0B4002802DCF0BC002030
:1006D0007047C0F3C751C0F3160040F40000CA07CA
:1006E00001D14000491E3F2202EB61050022114664
:1006F0004FF4000626FA01F31344D418844201D8BB
:10070000001B1A464000491C1729F3DD51008142A5
:1007100002D24FF0FF3100E0002102EBC550F0BCE7
:10072000FFF79ABF10B5141E73F1000408DA401CDD
:1007300041F1000192185B411A4301D120F0010000
:1007400010BD2DE9F04D92469B4611B1B1FA81F2F0
:1007500002E0B0FA80F220329046FFF75CFF0446D8
:100760000F4640EA0A0041EA0B0153465A46084345
:1007700013D0114653EA010019D0C8F14002504687
:1007800000F0E2F805460E46504659464246FFF74D
:1007900042FF084305D0012004E020463946BDE869
:1007A000F08D0020054346EAE0762C4337430A9853
:1007B0006305E40AA0EB08000022FD0A44EA47545E
:1007C0000A3002D500200146E9E701051019694108
:1007D000DDE9084500196941BDE8F04DA2E72DE9C2
:1007E000FE4F81EA030404F0004421F0004100942C
:1007F0004FF0000B23F0004350EA01045ED052EAB0
:1008000003045BD0C3F30A54C1F30A552C44A4F289
:10081000F3340194A0FB0254C1F3130141F480119D
:10082000C3F3130343F4801301FB024400FB034EA4
:10083000840A970A44EA815447EA8357A4FB07686D
:1008400002958D0A05FB07854FEA932C04FB0C5497
:100850002705029D4FEA065847EA1637B5EB08050B
:100860006EEB070C870E920E47EA811742EA83125D
:10087000A7FB0201B6EB0B0164EB00042B0D43EA6E
:100880000C335E1844EB1C50DA465146E7FB02017C
:10089000C5F313044FEA0B3343EA14534FEA04320F
:1008A000019C43EA0603A4F10C040294009CCDE9E8
:1008B00000B4FFF746FF03B0BDE8F08F002001460B
:1008C000F9E7C1F30A52C1F3130140F2FF3341F4D7
:1008D00080119A4202DA00200146704740F2334309
:1008E0009A42A2F2334202DC524200F02DB8FFF7E6
:1008F00092BE000030B5041E71F1000404DB4FF01D
:100900000044404264EB0101141E73F1000405DB56
:100910001C464FF00043524263EB0403994208BF68
:10092000904230BD064C074D06E0E06840F0010300
:1009300094E8070098471034AC42F6D3FFF7DAFB8F
:100940002C2400084C240008202A04DB203A21FA39
:1009500002F00021704721FA02F3D040C2F12002D8
:100960009140084319467047420005D0C0F3C75272
:100970005242914201DC0020704700EBC1507047A9
:1009800041F61F411A4A118000EB80014FF6FF72B9
:1009900002EA4101164A121D11800021144A121F59
:1009A000118013491839098821F00101104A183AB9
:1009B0001180111D098841F00101121D11800C499F
:1009C0002839098841F00101094A283A118000BFFD
:1009D00007491839098801F001010029F8D00449B4
:1009E0002839098821F00101014A283A118070470D
:1009F0002808004047211B4A1180121D1080002149
:100A0000184A121F118017491439098841F0010151
:100A1000144A143A1180111F098821F00101121F94
:100A2000118010492839098841F001010D4A283AFE
:100A3000118000BF0B491839098801F00101002914
:100A4000F8D008491839098821F00101054A183AF7
:100A5000118004492839098821F00101014A283A06
:100A600011807047280800402DE9F041024600251A
:100A70000026002000230024002791F803C00CF07A
:100A80000F0591F803C00CF0100CBCF1000F03D05F
:100A900091F802C04CEA050591F800C0BCF1000FC6
:100AA00031D0146800202BE04FF0010C0CFA00F359
:100AB000B1F800C00CEA03069E4220D183004FF03B
:100AC0000F0C0CFA03F7BC4305FA03FC4CEA0404D0
:100AD00091F803C0BCF1280F06D14FF0010C0CFABD
:100AE00000FCC2F814C00AE091F803C0BCF1480F42
:100AF00005D14FF0010C0CFA00FCC2F810C0401CEC
:100B00000828D1D31460B1F800C0BCF1FF0F34DD68
:100B1000546800202EE000F1080C4FF0010808FA9C
:100B20000CF3B1F800C00CEA03069E4221D1830009
:100B30004FF00F0C0CFA03F7BC4305FA03FC4CEA28
:100B4000040491F803C0BCF1280F05D100F1080C92
:100B500008FA0CF8C2F8148091F803C0BCF1480FF1
:100B600007D100F1080C4FF0010808FA0CF8C2F8A0
:100B70001080401C0828CED35460BDE8F0810000EE
:100B8000F0B58BB0182105A8FFF7D5FA1E2505266C
:100B900077420020039004903B48002101604160AF
:100BA00081604FF48050384988803BE000BF0A20C4
:100BB000FFF7E6FE00F050FB002416E03348016822
:100BC000E01C31F8100003A931F81410401A00B2EB
:100BD00001A921F814002D480168E01C31F810002B
:100BE00003A921F81400601C04B2032CE6DBBDF954
:100BF00004000528DBDCBDF9040010F1050FD6DB8D
:100C0000BDF906000528D2DCBDF9060010F1050F7C
:100C1000CDDBBDF908000528C9DCBDF9080010F1DD
:100C2000050FC4DB281EA5F10101CDB2BED1002401
:100C300017E000F011FB642C11DB00200CE005A98B
:100C400051F82010114A126832F91020114405AAF7
:100C500042F82010411CC8B20628F0DB00BF601C1F
:100C600004B2B4F5B27FE4DB002409E005A850F833
:100C70002400001200B2044921F81400601C04B2E0
:100C8000062CF3DB0BB0F0BD7C000020140000202C
:100C900010B504461348006820F040001149086070
:100CA0000520FFF7A7FE34B10E48006840F0800031
:100CB0000C49086005E00B48006820F080000949F5
:100CC00008600848006840F04000064908600520B8
:100CD000FFF790FE0348006820F0400001490860DB
:100CE00010BD00000C0C014008B50121082000F0E7
:100CF00035FB4020ADF8000010208DF803000320E4
:100D00008DF8020069460F48FFF7AEFE8020ADF86F
:100D1000000014208DF8030003208DF802006946BE
:100D20000848FFF7A1FE07480C30006840F080003B
:100D300004490C3108600846006840F04000086033
:100D400008BD0000000C014070B5002500241A48C1
:100D5000006820F04000184908600846006840F02C
:100D60008000086000BF1DE06006040E12480068A5
:100D700020F04000104908600520FFF73BFE0E48B8
:100D8000006840F040000C4908600520FFF732FE83
:100D90000948001F006800F0800008B144F0010419
:100DA000681CC5B2082DDFDB0348006820F0400056
:100DB00001490860204670BD0C0C014070B5044626
:100DC000002500BF24E01748006820F040001549C6
:100DD000086004F0800028B10846006840F08000F8
:100DE000086005E00F48006820F080000D490860A9
:100DF0000520FFF7FFFD0B48006840F0400009495F
:100E000008600520FFF7F6FD6006040E681CC5B2F9
:100E1000082DD8DB0348006820F040000149086035
:100E200070BD00000C0C014010B51148006820F0A6
:100E300040000F4908600846006840F080000860E4
:100E40000846006840F0400008600520FFF7D2FD2A
:100E50000748006820F08000054908600520FFF77A
:100E6000C9FD0348006820F040000149086010BD3A
:100E70000C0C014010B51148006820F040000F49EB
:100E800008600846006820F0800008600846006896
:100E900040F0400008600520FFF7ACFD07480068FF
:100EA00040F08000054908600520FFF7A3FD0348D6
:100EB000006820F040000149086010BD0C0C0140A2
:100EC00010B500241A48006820F040001849086056
:100ED0000846006840F0800008600846006820F07E
:100EE000400008600520FFF785FD1148006840F0CC
:100EF00040000F4908600520FFF77CFD08E0601CFA
:100F000084B2B4F57A7F03DDFFF7B4FF012010BD92
:100F10000748001F006800F080000028EFD1044857
:100F2000006820F04000024908600020EFE7000060
:100F30000C0C014008B500BF80216B2000F06EF959
:100F400000901420FFF71CFD00216B2000F066F9D3
:100F500000900221192000F061F99DF8001008446A
:100F6000C0B2009003216B2000F058F99DF80010EA
:100F70000844C0B2009003211A2000F04FF99DF8F8
:100F800000100844C0B2009018211B2000F046F960
:100F90009DF800100844C0B2009010211C2000F001
:100FA0003DF99DF800100844C0B200909DF8000083
:100FB0000028C1D101226946752000F00AF89DF889
:100FC0000000682801D0012008BDFFF7D9FD0020EE
:100FD000FAE770B506460D461446FFF725FFD02008
:100FE000FFF7ECFEFFF76CFF012803D1FFF742FF8C
:100FF000012070BD3046FFF7E1FEFFF761FFFFF70C
:1010000013FFD120FFF7DAFEFFF75AFF0EE0FFF7DC
:101010009BFE2870012C03D10120FFF739FE07E069
:101020000020FFF735FE601EC4B26D1C002CEED10F
:1010300000BFFFF71FFF0020DBE700002DE9F04FA6
:1010400089B000F009F96B49B1F90000FFF75CFACB
:1010500082464FF08B41FFF703F905466549B1F928
:101060000200FFF751FA82464FF08B41FFF7F8F884
:1010700004466049B1F90400FFF746FA82464FF092
:101080008B41FFF7EDF806465A49B1F90600FFF724
:101090003BFA82465849FFF7E3F808905549B1F901
:1010A0000800FFF731FA82465349FFF7D9F8079055
:1010B0005049B1F90A00FFF727FA82464E49FFF777
:1010C000CFF8069031463046FFF798F82146039056
:1010D0002046FFF793F8294602902846FFF78EF83E
:1010E00001900299FFF732F883460399FFF72EF833
:1010F000824601F085F9074640493846FFF73AFA3B
:101100000ED239462846FFF7ABF805463946204649
:10111000FFF7A6F8044639463046FFF7A1F8064621
:1011200031463046FFF76AF8214601902046FFF726
:1011300065F800900199FFF709F8029001F060F955
:1011400083465946284600F087FF2D490390FFF754
:1011500055F882462B49FFF783F8804684F000401B
:101160003146039000F078FF83462549FFF746F8A3
:1011700082462449FFF774F88146234805902348A6
:10118000049041462248FFF739F80390079880F011
:10119000004B1D495846FFF731F801901D48016882
:1011A0000198FEF7D3FF19490290FFF727F882460E
:1011B0000399FEF7CBFF1749086049461448FFF72B
:1011C0001DF8114903900898FFF718F8029012488B
:1011D00001680298FEF7BAFF83460C49FFF70EF844
:1011E00082460399FEF7B2FF0B49086009B0BDE8DB
:1011F000F08F00007000002033338341BD37863507
:1012000000003443DA0F49400AD7233C6666663F44
:10121000D0CCCC3D180000201C00002070B5054645
:101220000C46FFF701FED020FFF7C8FDFFF748FE90
:10123000012803D1FFF71EFE012070BD2846FFF7ED
:10124000BDFDFFF73DFE2046FFF7B8FDFFF738FE76
:10125000FFF710FE0020F0E72DE9FE4F0622694659
:101260003B20FFF7B6FE06220DF106014320FFF7F3
:10127000B0FE002458E0012000EB44001DF80000FF
:101280001DF8141040EA0120294931F81410401AC1
:1012900000B22849096821F81400032C1BDA2549FB
:1012A000096831F91400FFF72FF9054604EB4401F2
:1012B000214A02EBC100294601F02EF804EB44015B
:1012C0001D4A02EBC1018868FFF727F900B21949EE
:1012D000096821F81400022C24DDE01EC5B2DFF8F5
:1012E0005C801449096831F91400FFF70DF9824652
:1012F0004146FEF783FF0746114951F82500114981
:10130000FEF77CFF81463946FEF720FF0C4941F885
:1013100025000646FFF701F900B20649096821F8E1
:10132000140000BF601CC4B2062CA4DBBDE8FE8F15
:101330007C00002014000020200000209A99193E13
:10134000880000209A99593F02490143024A1160DE
:10135000704700000000FA050CED00E029B1064AD4
:1013600092690243044B9A6104E0034A9269824302
:10137000014B9A61704700000010024030B5002117
:101380000022002400232D4D6D6805F00C0121B1D1
:10139000042905D0082923D105E0294D056022E064
:1013A000274D05601FE0254D6D6805F47012234D33
:1013B0006D6805F48034022505EB92421CB9214D7D
:1013C000554305600BE01D4D6D6805F400351DB1FA
:1013D0001C4D5543056002E0194D5543056002E080
:1013E000174D056000BF00BF144D6D6805F0F0019A
:1013F0000909154D6B5C0568DD4045600F4D6D6852
:1014000005F4E061090A104D6B5C4568DD408560BC
:101410000A4D6D6805F46051C90A0B4D6B5C456857
:10142000DD40C560054D6D6805F44041890B074DF1
:101430006B5CC568B5FBF3F5056130BD001002407B
:1014400000127A0000093D0000000020100000207A
:1014500010B500F001F810BD0CB50020019000900F
:101460003348006840F480303149086000BF30489C
:10147000006800F4003000900198401C0190009832
:1014800018B90198B0F5A06FF1D12948006800F4AF
:10149000003010B10120009001E000200090009881
:1014A000012843D12348006840F01000214908601A
:1014B0000846006820F0030008600846006840F015
:1014C000020008601A4840681949486008464068A8
:1014D00048600846406840F48060486008464068BC
:1014E00020F47C1048600846406840F4E8104860EA
:1014F0000846006840F08070086000BF0C48006833
:1015000000F000700028F9D00948406820F003007E
:10151000074948600846406840F00200486000BF44
:101520000348406800F00C000828F9D10CBD000009
:1015300000100240002002407047000010B5134820
:10154000006840F0010011490860084640681049F1
:1015500008400E494860084600680E4908400B499B
:1015600008600846006820F480200860084640684B
:1015700020F4FE0048604FF41F008860FFF768FF0A
:101580004FF000600449086010BD000000100240E8
:101590000000FFF8FFFFF6FE08ED00E01248C0690A
:1015A00040F004001049C8611048008840F08000F5
:1015B0000E4908800846008820F008000880084688
:1015C000008840F0040008800846008820F00200EF
:1015D00008800846008820F00100088000200349A8
:1015E00010310880704700000010024000080040E1
:1015F00000B585B001210420FFF7B0FE012188036A
:10160000FFF7ACFE4FF40070ADF8100018208DF815
:10161000130003208DF8120004A90E48FFF724FAE6
:101620004FF4E13000900020ADF80400ADF8060062
:10163000ADF80800ADF80C000820ADF80A006946C6
:10164000054800F017F80121034800F007F805B03D
:1016500000BD0000000801400038014021B182892E
:1016600042F40052828104E082894DF6FF731A40F1
:10167000828170472DE9F04786B005460E4600246A
:10168000A24600BFA1460027B08900B100BF2F4687
:101690002C8A4CF6FF700440F08804432C82AC89FD
:1016A0004EF6F3100440B08831890843718908432D
:1016B0000443AC81AC8A4FF6FF400440B089044338
:1016C000AC8201A8FFF75AFE1F48874202D1DDF81D
:1016D00010A001E0DDF80CA0A88900F4004040B1A2
:1016E0000AEBCA0000EB0A1031684900B0FBF1F8C0
:1016F00007E00AEBCA0000EB0A1031688900B0FB72
:10170000F1F86420B8FBF0F004012009642101FB2A
:101710001089A88900F4004040B1322000EBC900D4
:10172000B0FBF1F000F00700044308E0322000EBCA
:1017300009106421B0FBF1F000F00F0004432C818C
:1017400006B0BDE8F0870000003801400FB4054B3B
:1017500010B503A9044A029800F0FAF810BC5DF82D
:1017600014FB0000FD220008680000204100080270
:1017700018BF04200A0E18BF40F001004FF07F424E
:1017800032EA010108BF40F00200012808BF05202D
:101790007047FEF7DBBC6FF05E010807FFF7E4B8A7
:1017A00002E008C8121F08C1002AFAD1704770472A
:1017B000002001E001C1121F002AFBD17047000088
:1017C00001490860704700006C0000202DE9FF5FB0
:1017D00082B00021DDE90430020DDDF840B00343A2
:1017E00018D044F61050A2F2FF324243151411985B
:1017F00001281FD0A5EB0B00401C5FEA000A4FF048
:1018000000064E4FDFF83891B046504615D5CAF164
:10181000000413E0119801244AA3012801D16FEAC2
:101820000B010298119AC0E90031C0E9024206B0EA
:10183000BDE8F09FCBF10000DFE704460021404AFD
:10184000491842EB0450CDE9001012E0E00707D040
:1018500032463B4640464946FEF7C1FF8046894630
:1018600032463B4610461946FEF7B9FF06460F467C
:101870006410002CEAD1DDE90401DDE90023BAF1AE
:10188000000F06DAFEF7ABFF42464B46FEF7A7FF16
:1018900005E0FEF7CAFD42464B46FEF7C6FD04468C
:1018A0000E460022284BFFF725F803D84FF0FF30F3
:1018B000014607E00022254B20463146FEF70EFD8B
:1018C000FEF7FFFF102409E0002C0ADB0A220023A8
:1018D000FEF770FE039B30321A55641E50EA010277
:1018E000F2D1641C039AC4F111031444119A012A21
:1018F00003D0012208430DD10AE0084304D00020A0
:101900004FF0110B119072E7A3EB0B056D1E0DE06C
:101910005B4504DD4FF0000205F1010504E003DA48
:101920004FF00002A5F10105002AECD002981199B0
:10193000C0E90231C0E9004579E700000000144029
:101940000000F03F300000000000F0430000E03FE6
:101950002DE9FF4F95B09A46884606460025EEE1F0
:10196000252877D100242746F94A0121039400E075
:10197000044316F8013F203B01FA03F01042F7D16F
:1019800030782A2811D06FF02F033078A0F1300280
:10199000092A16D8039A44F0020402EB820203EBF0
:1019A00042021044761C0390EFE758F8042B039290
:1019B000002A03DA504244F40054039044F0020435
:1019C000761C30782E2816D116F8010F44F0040446
:1019D0002A280DD06FF02F023078A0F13003092BA8
:1019E00009D807EB870302EB4303C718761CF3E71C
:1019F00058F8047B761C30786C280FD006DC4C2815
:101A000017D068280DD06A2814D104E0742810D0AB
:101A10007A280FD10DE044F400140AE044F4801455
:101A200001E044F440147278824202D104F580143B
:101A3000761C761C307866280BD013DC582877D0BB
:101A400009DC002875D04528F6D04628F4D0472870
:101A50001AD193E118E0632835D0642879D065283D
:101A600012D18BE1702873D008DC6728F1D0692887
:101A70006FD06E280DD06F2806D1ACE073282CD023
:101A8000752874D0782853D05246179990476D1C0A
:101A900054E1C4F30250022809D003280DD0D8F82D
:101AA000001004280DD00D6008F1040846E1D8F8B4
:101AB0000010EA17C1E90052F6E7D8F800100D80CF
:101AC000F2E70D70F0E718F8041B8DF80010002005
:101AD0008DF80100EB46012003E058F804BB4FF0FD
:101AE000FF3061074FF0000102D40DE009F1010160
:101AF0008946B9420FDA8145F8DB1BF80910002945
:101B0000F4D108E009F1010189468142FADB1BF8B2
:101B100009100029F6D103985346A0EB0907214686
:101B20003846179A00F080FA284400EB090507E0D0
:101B300044E008E10DE01BF8010B5246179990476D
:101B4000B9F10109F7D2534621463846179AF2E017
:101B500039E00A21C4F302524FF0000B0091022A2F
:101B600006D058F8040BC117032A09D00AE023E075
:101B700008F1070020F00702F2E80201904605E0B4
:101B800000B2C117042A01D140B2C117002906DAF8
:101B90000A460021404261EB02012D2202E02205AB
:101BA00004D52B228DF80420012203E0E20701D0A6
:101BB0002022F7E7914657E00A2100E010214FF07C
:101BC000000B00910BE010214FF0000B44F00404D7
:101BD0000827009103E008204FF0000B0090C4F3A9
:101BE0000252022A05D058F8040B0021032A08D01B
:101BF00008E008F1070020F00702F2E80201904631
:101C000003E080B2042A00D1C0B24FF000092207DD
:101C10002AD53278702A07D0DDF800C08CF0100C7D
:101C20005CEA0B0C05D00EE040228DF80420012266
:101C300008E050EA010306D030238DF804308DF817
:101C4000052002229146009B83F0080353EA0B0310
:101C50000AD150EA010201D1620705D530228DF880
:101C600004204FF001097F1E3278582A04D039A28F
:101C70000C920CAA02920BE03BA2F9E75B46009A99
:101C8000FEF798FC0C9B9B5C029A521E029213700A
:101C900050EA0102F2D1029804A9081A00F1200BBF
:101CA000600702D524F4803400E001275F4502DD9F
:101CB000A7EB0B0000E0002000EB0B010090039865
:101CC0004944401A0390E00306D453462146179A2C
:101CD000039800F0A9F90544002706E001A8524640
:101CE000C05D179990476D1C7F1C4F45F6DBE003E4
:101CF0000CD553462146179A039800F095F90544F0
:101D000004E030205246179990476D1C0099481EF8
:101D100000900029F5DC08E002980299524600780C
:101D2000491C0291179990476D1CBBF10001ABF162
:101D3000010BF1DC5BE100F065F90544761C3078BD
:101D400000287FF40DAE19B02846BDE8F08F0000E2
:101D50000928010030313233343536373839616281
:101D60006364656600000000303132333435363745
:101D7000383941424344454600000000600700D422
:101D8000062708F1070020F00700F0E8022380464C
:101D900003F0004C5FEA0C0001D097A009E0200599
:101DA00001D596A005E0E00701D095A001E0AFF2D3
:101DB0004C001390307823F0004365280CD006DCEB
:101DC000452809D046281DD047287FD13BE066280A
:101DD00018D067287AD136E00021112F01DB1120BD
:101DE00000E0781CCDE9000104A90CA8FFF7EEFC87
:101DF000DDE90D010C9A4FF0000B07F1010910927B
:101E000000914EE04FF000400097CDE9011004A989
:101E10000CA8FFF7DBFCDDE90D020C9B0F994FF0DE
:101E2000000B91461093009211B9791C00EB010947
:101E3000B7EB090003D4C0F1FF3B07F10109A9EB9F
:101E40000700019042E0012F00DA01270021112F45
:101E500001DD112000E03846CDE9000104A90CA8FD
:101E6000FFF7B4FCDDE90D010C9A00914FF0000B77
:101E7000B946109221070FD4009A4A4503DA9146D9
:101E800001E0A9F10109B9F1010F05DD109AA9F1ED
:101E90000101515C3029F4D0B84202DA10F1040F8C
:101EA00003DA0121CDE9011010E0002803DC8344AE
:101EB000A9EB000102E0411C494500DD8946A0EB89
:101EC0000B00401C01904FF000400290200705D409
:101ED0000198484502DB4FF0FF30019000208DF85B
:101EE0004B0002980DF14B07B0F1004F25D00220B6
:101EF0000C902B200D90029800280CDA40420290A2
:101F00002D200D9007E00A210298FEF73DFB3031AD
:101F1000029007F8011D0C99481E0C900029F2DC74
:101F200002980028EFD1791E0D980870307800F0E3
:101F3000200040F0450007F8020D11A8C01BC01D8D
:101F400002901398007800B1012000EB090101987C
:101F500001EBE071029801440398401A401E03907F
:101F6000E00306D453462146179A039800F05CF824
:101F700005441398007818B15246179990476D1C84
:101F8000E00323D553462146179A039800F04CF8F6
:101F900005441BE0BBF1000F07DB0098584504DD4A
:101FA0001098179910F80B0001E01799302052464D
:101FB000904701980BF1010B401E05F101050190BE
:101FC00004D12E205246179990476D1CB9F100019B
:101FD000A9F10109DEDC05E017F8010B524617995B
:101FE00090476D1C0299481E02900029F4DC53466C
:101FF0002146179A03989EE62D0000002B00000052
:10200000200000002DE9F041044600251E46174639
:10201000880404D405E039462020B0476D1C641EB6
:10202000F9D52846BDE8F0812DE9F04104460025A8
:102030001E469046C80301D5302700E020278804BB
:1020400004D505E041463846B0476D1C641EF9D5FD
:102050002846BDE8F08100002DE9F0474FF06842C6
:1020600002EB40030C460546B3F1654F3CBF02EB63
:102070004102B2F1654F80F0CD8000BFC0F3C7527E
:10208000C1F3C753D21A1B2A06DD10F0004F14BF4C
:1020900087488848BDE8F08712F11A0F2FDA11F04F
:1020A000004F06D010F0004F0CBF83488348BDE8B6
:1020B000F08721462846FEF7D3F80646FFF756FB81
:1020C000042808BFFFF767FB2846FFF74FFB0546CC
:1020D0002046FFF74BFB04463046FFF747FB042D35
:1020E00018BF052D08D1042C18BF052C04D10028D9
:1020F00004BF0220FFF764FB3046BDE8F0874200D2
:10210000B2EB410F25D910F0004F19BF6C4F6D4E47
:102110006D4F6E4E224685F0004415460A4680F00B
:10212000004110460A1A5200B2F1807F3ED2484068
:102130006749DFF8A0A110F0004F18D04FF03F48DA
:102140003846FEF755F8074651463046FEF750F838
:1021500017E011F0004F04BF00263746E2D010F020
:10216000004F19BF5C4F5D4E5D4F5E4EDAE74FF09A
:102170007C583846FDF7EAFF074651463046FDF7E2
:10218000E5FF064641462846FEF738F82146FDF7AA
:10219000DDFF824621464046FEF730F82946FEF72D
:1021A0002AF85146FEF75CF8044604E0214628462A
:1021B000FEF756F804460146FEF720F880464A49E5
:1021C000FEF71CF84949FDF7C1FF4146FEF716F836
:1021D0004749FDF7BBFF4146FEF710F84549FDF7BB
:1021E000B5FF4146FEF70AF84349FDF7AFFF054644
:1021F00041462046FEF702F82946FDF7FFFF31462B
:10220000FDF7A4FF2146FDF7A1FF3946BDE8F047E1
:10221000FDF79CBF4FF07F42B2EB400F28BFB2EBFF
:10222000410F03D2BDE8F047FFF7B3BA40EA01031C
:102230005B0008BF44F0FF410AD0B2EB400F08BF7B
:10224000B2EB410F06D125F0804024F080410546D5
:102250000C4613E7B2EB400F12BF5FEA410345F0B3
:10226000FF4004F000413FF409AFB2EB410F12BF51
:102270005FEA400205F0004044F0FF413FF4FEAE4B
:102280004A0092EA40033FF5F9AE002AACBF4FF096
:102290009F464FF03E563146FDF7B0FF05463146AA
:1022A0002046FDF7ABFF044628462146E6E600003F
:1022B000DB0FC9BFDB0FC93FDB0F4940DB0F49C054
:1022C0000000C9BF22AAFDB90000C93F22AAFD39FA
:1022D0000060ED3EC30ACE37000049C022AA7DBA95
:1022E0000000494022AA7D3A2DAD65BD8FB8D53D8D
:1022F0000FB511BE61C84C3EA8AAAABE054B1880F6
:1023000000BF044A121F128802F08002002AF8D08F
:1023100070470000043801402DE9F04104460D46A5
:1023200021692068FDF712FF606061696068FDF750
:102330000DFF064631466068FDF792FFE0602846D3
:10234000A168FDF755FF0746E168FDF757FF064610
:10235000A168FDF7FBFEA0604FF07E50E168FDF73D
:1023600047FF06466168FDF749FF2060BDE8F08140
:102370001CB54FF4A060FEF7E7FFFFF70FF9FFF77A
:1023800037F9FEF7B1FCFEF7D5FD10B10EA0FFF74F
:10239000DDF912A0FFF7DAF915E0FEF75DFFFEF7B1
:1023A0004DFE12480068FEF7D1F804460D4610486D
:1023B0000068FEF7CBF8064632460B460DA0CDE985
:1023C0000045FFF7C3F9E8E76D707536303530200A
:1023D0006572726F72A3A10D0A000000B3F5CABC4A
:1023E000BBAFB3C9B9A6A3A10D0A00001C00002011
:1023F00018000020252E32662C252E32660D0A008C
:1024000070B50546FEF75FF9044620F00040C0F1C4
:10241000FF40C00F08D025F00040C0F1FF40C00FC2
:1024200004BF0120FFF7CCF9204670BD4C24000802
:102430000000002070000000A0170008BC24000865
:102440007000002028040000B01700080000000001
:102450000102030401020304060708090204060836
:102460007000002000000000000000000AD7A33C1C
:102470000000000000000000000000006F12833A1E
:102480000C020B3F0AD7A33C000000000000000034
:10249000000000006F12833A0C020B3F0AD7A33CE6
:1024A0000000000000000000000000006F12833AEE
:0C24B0000C020B3F0000000000000000C8
:04000005080000ED02
:00000001FF
